{
  "_format": "hh-sol-artifact-1",
  "contractName": "Dex",
  "sourceName": "contracts/Dex.sol",
  "abi": [
    {
      "inputs": [
        {
          "internalType": "string",
          "name": "",
          "type": "string"
        }
      ],
      "name": "pools",
      "outputs": [
        {
          "internalType": "contract ERC20",
          "name": "tokenA",
          "type": "address"
        },
        {
          "internalType": "contract ERC20",
          "name": "tokenB",
          "type": "address"
        },
        {
          "internalType": "bool",
          "name": "isOpen",
          "type": "bool"
        }
      ],
      "stateMutability": "view",
      "type": "function"
    },
    {
      "inputs": [
        {
          "internalType": "contract ERC20",
          "name": "tokenA",
          "type": "address"
        },
        {
          "internalType": "contract ERC20",
          "name": "tokenB",
          "type": "address"
        }
      ],
      "name": "registerPool",
      "outputs": [],
      "stateMutability": "nonpayable",
      "type": "function"
    }
  ],
  "bytecode": "0x608060405234801561001057600080fd5b506107eb806100206000396000f3fe608060405234801561001057600080fd5b50600436106100365760003560e01c80637286e5e51461003b5780639d6f17a814610057575b600080fd5b610055600480360381019061005091906103d0565b610089565b005b610071600480360381019061006c9190610556565b6102bf565b60405161008093929190610619565b60405180910390f35b60008273ffffffffffffffffffffffffffffffffffffffff166395d89b416040518163ffffffff1660e01b8152600401600060405180830381865afa1580156100d6573d6000803e3d6000fd5b505050506040513d6000823e3d601f19601f820116820180604052508101906100ff91906106ea565b905060008273ffffffffffffffffffffffffffffffffffffffff166395d89b416040518163ffffffff1660e01b8152600401600060405180830381865afa15801561014e573d6000803e3d6000fd5b505050506040513d6000823e3d601f19601f8201168201806040525081019061017791906106ea565b90506000828260405160200161018e92919061077a565b604051602081830303815290604052905060405180606001604052808673ffffffffffffffffffffffffffffffffffffffff1681526020018573ffffffffffffffffffffffffffffffffffffffff168152602001600115158152506000826040516101f9919061079e565b908152602001604051809103902060008201518160000160006101000a81548173ffffffffffffffffffffffffffffffffffffffff021916908373ffffffffffffffffffffffffffffffffffffffff16021790555060208201518160010160006101000a81548173ffffffffffffffffffffffffffffffffffffffff021916908373ffffffffffffffffffffffffffffffffffffffff16021790555060408201518160010160146101000a81548160ff0219169083151502179055509050505050505050565b6000818051602081018201805184825260208301602085012081835280955050505050506000915090508060000160009054906101000a900473ffffffffffffffffffffffffffffffffffffffff16908060010160009054906101000a900473ffffffffffffffffffffffffffffffffffffffff16908060010160149054906101000a900460ff16905083565b6000604051905090565b600080fd5b600080fd5b600073ffffffffffffffffffffffffffffffffffffffff82169050919050565b600061038b82610360565b9050919050565b600061039d82610380565b9050919050565b6103ad81610392565b81146103b857600080fd5b50565b6000813590506103ca816103a4565b92915050565b600080604083850312156103e7576103e6610356565b5b60006103f5858286016103bb565b9250506020610406858286016103bb565b9150509250929050565b600080fd5b600080fd5b6000601f19601f8301169050919050565b7f4e487b7100000000000000000000000000000000000000000000000000000000600052604160045260246000fd5b6104638261041a565b810181811067ffffffffffffffff821117156104825761048161042b565b5b80604052505050565b600061049561034c565b90506104a1828261045a565b919050565b600067ffffffffffffffff8211156104c1576104c061042b565b5b6104ca8261041a565b9050602081019050919050565b82818337600083830152505050565b60006104f96104f4846104a6565b61048b565b90508281526020810184848401111561051557610514610415565b5b6105208482856104d7565b509392505050565b600082601f83011261053d5761053c610410565b5b813561054d8482602086016104e6565b91505092915050565b60006020828403121561056c5761056b610356565b5b600082013567ffffffffffffffff81111561058a5761058961035b565b5b61059684828501610528565b91505092915050565b6000819050919050565b60006105c46105bf6105ba84610360565b61059f565b610360565b9050919050565b60006105d6826105a9565b9050919050565b60006105e8826105cb565b9050919050565b6105f8816105dd565b82525050565b60008115159050919050565b610613816105fe565b82525050565b600060608201905061062e60008301866105ef565b61063b60208301856105ef565b610648604083018461060a565b949350505050565b60005b8381101561066e578082015181840152602081019050610653565b60008484015250505050565b600061068d610688846104a6565b61048b565b9050828152602081018484840111156106a9576106a8610415565b5b6106b4848285610650565b509392505050565b600082601f8301126106d1576106d0610410565b5b81516106e184826020860161067a565b91505092915050565b600060208284031215610700576106ff610356565b5b600082015167ffffffffffffffff81111561071e5761071d61035b565b5b61072a848285016106bc565b91505092915050565b600081519050919050565b600081905092915050565b600061075482610733565b61075e818561073e565b935061076e818560208601610650565b80840191505092915050565b60006107868285610749565b91506107928284610749565b91508190509392505050565b60006107aa8284610749565b91508190509291505056fea264697066735822122016039b8a672dcf3a489694d609bfd3fc3fdea352bb6d883973d0827893cae9bf64736f6c63430008130033",
  "linkReferences": {},
  "deployedLinkReferences": {}
}