{
  "_format": "hh-sol-artifact-1",
  "contractName": "Localization",
  "sourceName": "contracts/Lock.sol",
  "abi": [
    {
      "anonymous": false,
      "inputs": [
        {
          "indexed": true,
          "internalType": "address",
          "name": "previousOwner",
          "type": "address"
        },
        {
          "indexed": true,
          "internalType": "address",
          "name": "newOwner",
          "type": "address"
        }
      ],
      "name": "OwnershipTransferred",
      "type": "event"
    },
    {
      "anonymous": false,
      "inputs": [
        {
          "indexed": false,
          "internalType": "string",
          "name": "name",
          "type": "string"
        },
        {
          "indexed": false,
          "internalType": "string",
          "name": "description",
          "type": "string"
        },
        {
          "indexed": true,
          "internalType": "uint256",
          "name": "id",
          "type": "uint256"
        }
      ],
      "name": "UnitCreated",
      "type": "event"
    },
    {
      "anonymous": false,
      "inputs": [
        {
          "indexed": false,
          "internalType": "string",
          "name": "name",
          "type": "string"
        },
        {
          "indexed": false,
          "internalType": "string",
          "name": "description",
          "type": "string"
        },
        {
          "indexed": true,
          "internalType": "uint256",
          "name": "boughtFor",
          "type": "uint256"
        }
      ],
      "name": "UnitSold",
      "type": "event"
    },
    {
      "inputs": [
        {
          "internalType": "uint256",
          "name": "_unitId",
          "type": "uint256"
        }
      ],
      "name": "buyUnit",
      "outputs": [],
      "stateMutability": "payable",
      "type": "function"
    },
    {
      "inputs": [
        {
          "internalType": "string",
          "name": "_name",
          "type": "string"
        },
        {
          "internalType": "string",
          "name": "_description",
          "type": "string"
        },
        {
          "internalType": "string",
          "name": "_location",
          "type": "string"
        },
        {
          "internalType": "int256",
          "name": "_nonce",
          "type": "int256"
        },
        {
          "internalType": "uint256",
          "name": "_readPrice",
          "type": "uint256"
        }
      ],
      "name": "createUnit",
      "outputs": [
        {
          "internalType": "uint256",
          "name": "",
          "type": "uint256"
        }
      ],
      "stateMutability": "nonpayable",
      "type": "function"
    },
    {
      "inputs": [],
      "name": "owner",
      "outputs": [
        {
          "internalType": "address",
          "name": "",
          "type": "address"
        }
      ],
      "stateMutability": "view",
      "type": "function"
    },
    {
      "inputs": [],
      "name": "renounceOwnership",
      "outputs": [],
      "stateMutability": "nonpayable",
      "type": "function"
    },
    {
      "inputs": [
        {
          "internalType": "address",
          "name": "newOwner",
          "type": "address"
        }
      ],
      "name": "transferOwnership",
      "outputs": [],
      "stateMutability": "nonpayable",
      "type": "function"
    },
    {
      "inputs": [],
      "name": "withdrawAll",
      "outputs": [],
      "stateMutability": "payable",
      "type": "function"
    },
    {
      "stateMutability": "payable",
      "type": "receive"
    }
  ],
  "bytecode": "0x608060405234801561001057600080fd5b5061002d61002261003260201b60201c565b61003a60201b60201c565b6100fe565b600033905090565b60008060009054906101000a900473ffffffffffffffffffffffffffffffffffffffff169050816000806101000a81548173ffffffffffffffffffffffffffffffffffffffff021916908373ffffffffffffffffffffffffffffffffffffffff1602179055508173ffffffffffffffffffffffffffffffffffffffff168173ffffffffffffffffffffffffffffffffffffffff167f8be0079c531659141344cd1fd0a4f28419497f9722a3daafe3b4186f6b6457e060405160405180910390a35050565b6112ca8061010d6000396000f3fe6080604052600436106100595760003560e01c80630c369ded14610065578063715018a6146100a2578063853828b6146100b95780638da5cb5b146100c3578063c9c1f65d146100ee578063f2fde38b1461010a57610060565b3661006057005b600080fd5b34801561007157600080fd5b5061008c60048036038101906100879190610ae3565b610133565b6040516100999190610bc1565b60405180910390f35b3480156100ae57600080fd5b506100b76102d9565b005b6100c16102ed565b005b3480156100cf57600080fd5b506100d861033e565b6040516100e59190610c1d565b60405180910390f35b61010860048036038101906101039190610c38565b610367565b005b34801561011657600080fd5b50610131600480360381019061012c9190610c91565b610750565b005b6000803342438660405160200161014d9493929190610d48565b6040516020818303038152906040528051906020012060001c905080600260003373ffffffffffffffffffffffffffffffffffffffff1673ffffffffffffffffffffffffffffffffffffffff168152602001908152602001600020819055506040518060a001604052808881526020018781526020018681526020018481526020013373ffffffffffffffffffffffffffffffffffffffff168152506001600083815260200190815260200160002060008201518160000190816102119190610fad565b5060208201518160010190816102279190610fad565b50604082015181600201908161023d9190610fad565b506060820151816003015560808201518160040160006101000a81548173ffffffffffffffffffffffffffffffffffffffff021916908373ffffffffffffffffffffffffffffffffffffffff160217905550905050807f39f81825fdae2a58a97c51c181933eae88898b713dfc6d27b273188f529ebecf88886040516102c49291906110f3565b60405180910390a28091505095945050505050565b6102e16107d3565b6102eb6000610851565b565b6102f56107d3565b3373ffffffffffffffffffffffffffffffffffffffff166108fc479081150290604051600060405180830381858888f1935050505015801561033b573d6000803e3d6000fd5b50565b60008060009054906101000a900473ffffffffffffffffffffffffffffffffffffffff16905090565b8034600160008381526020019081526020016000206003015411156103c1576040517f08c379a00000000000000000000000000000000000000000000000000000000081526004016103b890611176565b60405180910390fd5b6000600160008481526020019081526020016000206040518060a00160405290816000820180546103f190610dd0565b80601f016020809104026020016040519081016040528092919081815260200182805461041d90610dd0565b801561046a5780601f1061043f5761010080835404028352916020019161046a565b820191906000526020600020905b81548152906001019060200180831161044d57829003601f168201915b5050505050815260200160018201805461048390610dd0565b80601f01602080910402602001604051908101604052809291908181526020018280546104af90610dd0565b80156104fc5780601f106104d1576101008083540402835291602001916104fc565b820191906000526020600020905b8154815290600101906020018083116104df57829003601f168201915b5050505050815260200160028201805461051590610dd0565b80601f016020809104026020016040519081016040528092919081815260200182805461054190610dd0565b801561058e5780601f106105635761010080835404028352916020019161058e565b820191906000526020600020905b81548152906001019060200180831161057157829003601f168201915b50505050508152602001600382015481526020016004820160009054906101000a900473ffffffffffffffffffffffffffffffffffffffff1673ffffffffffffffffffffffffffffffffffffffff1673ffffffffffffffffffffffffffffffffffffffff168152505090506000816080015190508073ffffffffffffffffffffffffffffffffffffffff166108fc349081150290604051600060405180830381858888f19350505050158015610648573d6000803e3d6000fd5b5033826080019073ffffffffffffffffffffffffffffffffffffffff16908173ffffffffffffffffffffffffffffffffffffffff168152505083600260003373ffffffffffffffffffffffffffffffffffffffff1673ffffffffffffffffffffffffffffffffffffffff16815260200190815260200160002081905550600260008273ffffffffffffffffffffffffffffffffffffffff1673ffffffffffffffffffffffffffffffffffffffff16815260200190815260200160002060009055347f7076e34efc64be6891f7862ac96d4c0bfc2922efa632ebb58a3de31e94f6afe8836000015184602001516040516107429291906110f3565b60405180910390a250505050565b6107586107d3565b600073ffffffffffffffffffffffffffffffffffffffff168173ffffffffffffffffffffffffffffffffffffffff16036107c7576040517f08c379a00000000000000000000000000000000000000000000000000000000081526004016107be90611208565b60405180910390fd5b6107d081610851565b50565b6107db610915565b73ffffffffffffffffffffffffffffffffffffffff166107f961033e565b73ffffffffffffffffffffffffffffffffffffffff161461084f576040517f08c379a000000000000000000000000000000000000000000000000000000000815260040161084690611274565b60405180910390fd5b565b60008060009054906101000a900473ffffffffffffffffffffffffffffffffffffffff169050816000806101000a81548173ffffffffffffffffffffffffffffffffffffffff021916908373ffffffffffffffffffffffffffffffffffffffff1602179055508173ffffffffffffffffffffffffffffffffffffffff168173ffffffffffffffffffffffffffffffffffffffff167f8be0079c531659141344cd1fd0a4f28419497f9722a3daafe3b4186f6b6457e060405160405180910390a35050565b600033905090565b6000604051905090565b600080fd5b600080fd5b600080fd5b600080fd5b6000601f19601f8301169050919050565b7f4e487b7100000000000000000000000000000000000000000000000000000000600052604160045260246000fd5b6109848261093b565b810181811067ffffffffffffffff821117156109a3576109a261094c565b5b80604052505050565b60006109b661091d565b90506109c2828261097b565b919050565b600067ffffffffffffffff8211156109e2576109e161094c565b5b6109eb8261093b565b9050602081019050919050565b82818337600083830152505050565b6000610a1a610a15846109c7565b6109ac565b905082815260208101848484011115610a3657610a35610936565b5b610a418482856109f8565b509392505050565b600082601f830112610a5e57610a5d610931565b5b8135610a6e848260208601610a07565b91505092915050565b6000819050919050565b610a8a81610a77565b8114610a9557600080fd5b50565b600081359050610aa781610a81565b92915050565b6000819050919050565b610ac081610aad565b8114610acb57600080fd5b50565b600081359050610add81610ab7565b92915050565b600080600080600060a08688031215610aff57610afe610927565b5b600086013567ffffffffffffffff811115610b1d57610b1c61092c565b5b610b2988828901610a49565b955050602086013567ffffffffffffffff811115610b4a57610b4961092c565b5b610b5688828901610a49565b945050604086013567ffffffffffffffff811115610b7757610b7661092c565b5b610b8388828901610a49565b9350506060610b9488828901610a98565b9250506080610ba588828901610ace565b9150509295509295909350565b610bbb81610aad565b82525050565b6000602082019050610bd66000830184610bb2565b92915050565b600073ffffffffffffffffffffffffffffffffffffffff82169050919050565b6000610c0782610bdc565b9050919050565b610c1781610bfc565b82525050565b6000602082019050610c326000830184610c0e565b92915050565b600060208284031215610c4e57610c4d610927565b5b6000610c5c84828501610ace565b91505092915050565b610c6e81610bfc565b8114610c7957600080fd5b50565b600081359050610c8b81610c65565b92915050565b600060208284031215610ca757610ca6610927565b5b6000610cb584828501610c7c565b91505092915050565b60008160601b9050919050565b6000610cd682610cbe565b9050919050565b6000610ce882610ccb565b9050919050565b610d00610cfb82610bfc565b610cdd565b82525050565b6000819050919050565b610d21610d1c82610aad565b610d06565b82525050565b6000819050919050565b610d42610d3d82610a77565b610d27565b82525050565b6000610d548287610cef565b601482019150610d648286610d10565b602082019150610d748285610d10565b602082019150610d848284610d31565b60208201915081905095945050505050565b600081519050919050565b7f4e487b7100000000000000000000000000000000000000000000000000000000600052602260045260246000fd5b60006002820490506001821680610de857607f821691505b602082108103610dfb57610dfa610da1565b5b50919050565b60008190508160005260206000209050919050565b60006020601f8301049050919050565b600082821b905092915050565b600060088302610e637fffffffffffffffffffffffffffffffffffffffffffffffffffffffffffffffff82610e26565b610e6d8683610e26565b95508019841693508086168417925050509392505050565b6000819050919050565b6000610eaa610ea5610ea084610aad565b610e85565b610aad565b9050919050565b6000819050919050565b610ec483610e8f565b610ed8610ed082610eb1565b848454610e33565b825550505050565b600090565b610eed610ee0565b610ef8818484610ebb565b505050565b5b81811015610f1c57610f11600082610ee5565b600181019050610efe565b5050565b601f821115610f6157610f3281610e01565b610f3b84610e16565b81016020851015610f4a578190505b610f5e610f5685610e16565b830182610efd565b50505b505050565b600082821c905092915050565b6000610f8460001984600802610f66565b1980831691505092915050565b6000610f9d8383610f73565b9150826002028217905092915050565b610fb682610d96565b67ffffffffffffffff811115610fcf57610fce61094c565b5b610fd98254610dd0565b610fe4828285610f20565b600060209050601f8311600181146110175760008415611005578287015190505b61100f8582610f91565b865550611077565b601f19841661102586610e01565b60005b8281101561104d57848901518255600182019150602085019450602081019050611028565b8683101561106a5784890151611066601f891682610f73565b8355505b6001600288020188555050505b505050505050565b600082825260208201905092915050565b60005b838110156110ae578082015181840152602081019050611093565b60008484015250505050565b60006110c582610d96565b6110cf818561107f565b93506110df818560208601611090565b6110e88161093b565b840191505092915050565b6000604082019050818103600083015261110d81856110ba565b9050818103602083015261112181846110ba565b90509392505050565b7f63616e74206166666f7264000000000000000000000000000000000000000000600082015250565b6000611160600b8361107f565b915061116b8261112a565b602082019050919050565b6000602082019050818103600083015261118f81611153565b9050919050565b7f4f776e61626c653a206e6577206f776e657220697320746865207a65726f206160008201527f6464726573730000000000000000000000000000000000000000000000000000602082015250565b60006111f260268361107f565b91506111fd82611196565b604082019050919050565b60006020820190508181036000830152611221816111e5565b9050919050565b7f4f776e61626c653a2063616c6c6572206973206e6f7420746865206f776e6572600082015250565b600061125e60208361107f565b915061126982611228565b602082019050919050565b6000602082019050818103600083015261128d81611251565b905091905056fea2646970667358221220a3b0bcc0a6c32e86d330390a3a9317dc34fd10c5e5bb37763e708c4554f1d97d64736f6c63430008150033",
  "linkReferences": {},
  "deployedLinkReferences": {}
}