{
  "_format": "hh-sol-artifact-1",
  "contractName": "Localization",
  "sourceName": "contracts/Localization.sol",
  "abi": [
    {
      "anonymous": false,
      "inputs": [
        {
          "indexed": true,
          "internalType": "address",
          "name": "previousOwner",
          "type": "address"
        },
        {
          "indexed": true,
          "internalType": "address",
          "name": "newOwner",
          "type": "address"
        }
      ],
      "name": "OwnershipTransferred",
      "type": "event"
    },
    {
      "anonymous": false,
      "inputs": [
        {
          "indexed": false,
          "internalType": "string",
          "name": "name",
          "type": "string"
        },
        {
          "indexed": false,
          "internalType": "string",
          "name": "description",
          "type": "string"
        },
        {
          "indexed": true,
          "internalType": "uint256",
          "name": "id",
          "type": "uint256"
        }
      ],
      "name": "UnitCreated",
      "type": "event"
    },
    {
      "anonymous": false,
      "inputs": [
        {
          "indexed": false,
          "internalType": "string",
          "name": "name",
          "type": "string"
        },
        {
          "indexed": false,
          "internalType": "string",
          "name": "description",
          "type": "string"
        },
        {
          "indexed": true,
          "internalType": "uint256",
          "name": "boughtFor",
          "type": "uint256"
        },
        {
          "indexed": false,
          "internalType": "string",
          "name": "location",
          "type": "string"
        }
      ],
      "name": "UnitSold",
      "type": "event"
    },
    {
      "inputs": [
        {
          "internalType": "uint256",
          "name": "_unitId",
          "type": "uint256"
        }
      ],
      "name": "buyUnit",
      "outputs": [],
      "stateMutability": "payable",
      "type": "function"
    },
    {
      "inputs": [
        {
          "internalType": "string",
          "name": "_name",
          "type": "string"
        },
        {
          "internalType": "string",
          "name": "_description",
          "type": "string"
        },
        {
          "internalType": "string",
          "name": "_location",
          "type": "string"
        },
        {
          "internalType": "int256",
          "name": "_nonce",
          "type": "int256"
        },
        {
          "internalType": "uint256",
          "name": "_readPrice",
          "type": "uint256"
        }
      ],
      "name": "createUnit",
      "outputs": [
        {
          "internalType": "uint256",
          "name": "",
          "type": "uint256"
        }
      ],
      "stateMutability": "nonpayable",
      "type": "function"
    },
    {
      "inputs": [],
      "name": "owner",
      "outputs": [
        {
          "internalType": "address",
          "name": "",
          "type": "address"
        }
      ],
      "stateMutability": "view",
      "type": "function"
    },
    {
      "inputs": [],
      "name": "renounceOwnership",
      "outputs": [],
      "stateMutability": "nonpayable",
      "type": "function"
    },
    {
      "inputs": [
        {
          "internalType": "address",
          "name": "newOwner",
          "type": "address"
        }
      ],
      "name": "transferOwnership",
      "outputs": [],
      "stateMutability": "nonpayable",
      "type": "function"
    },
    {
      "inputs": [],
      "name": "withdrawAll",
      "outputs": [],
      "stateMutability": "payable",
      "type": "function"
    },
    {
      "stateMutability": "payable",
      "type": "receive"
    }
  ],
  "bytecode": "0x608060405234801561001057600080fd5b5061002d61002261003260201b60201c565b61003a60201b60201c565b6100fe565b600033905090565b60008060009054906101000a900473ffffffffffffffffffffffffffffffffffffffff169050816000806101000a81548173ffffffffffffffffffffffffffffffffffffffff021916908373ffffffffffffffffffffffffffffffffffffffff1602179055508173ffffffffffffffffffffffffffffffffffffffff168173ffffffffffffffffffffffffffffffffffffffff167f8be0079c531659141344cd1fd0a4f28419497f9722a3daafe3b4186f6b6457e060405160405180910390a35050565b61131c8061010d6000396000f3fe6080604052600436106100595760003560e01c80630c369ded14610065578063715018a6146100a2578063853828b6146100b95780638da5cb5b146100c3578063c9c1f65d146100ee578063f2fde38b1461010a57610060565b3661006057005b600080fd5b34801561007157600080fd5b5061008c60048036038101906100879190610ae9565b610133565b6040516100999190610bc7565b60405180910390f35b3480156100ae57600080fd5b506100b76102d9565b005b6100c16102ed565b005b3480156100cf57600080fd5b506100d861033e565b6040516100e59190610c23565b60405180910390f35b61010860048036038101906101039190610c3e565b610367565b005b34801561011657600080fd5b50610131600480360381019061012c9190610c97565b610756565b005b6000803342438660405160200161014d9493929190610d4e565b6040516020818303038152906040528051906020012060001c905080600260003373ffffffffffffffffffffffffffffffffffffffff1673ffffffffffffffffffffffffffffffffffffffff168152602001908152602001600020819055506040518060a001604052808881526020018781526020018681526020018481526020013373ffffffffffffffffffffffffffffffffffffffff168152506001600083815260200190815260200160002060008201518160000190816102119190610fb3565b5060208201518160010190816102279190610fb3565b50604082015181600201908161023d9190610fb3565b506060820151816003015560808201518160040160006101000a81548173ffffffffffffffffffffffffffffffffffffffff021916908373ffffffffffffffffffffffffffffffffffffffff160217905550905050807f39f81825fdae2a58a97c51c181933eae88898b713dfc6d27b273188f529ebecf88886040516102c49291906110f9565b60405180910390a28091505095945050505050565b6102e16107d9565b6102eb6000610857565b565b6102f56107d9565b3373ffffffffffffffffffffffffffffffffffffffff166108fc479081150290604051600060405180830381858888f1935050505015801561033b573d6000803e3d6000fd5b50565b60008060009054906101000a900473ffffffffffffffffffffffffffffffffffffffff16905090565b8034600160008381526020019081526020016000206003015411156103c1576040517f08c379a00000000000000000000000000000000000000000000000000000000081526004016103b89061117c565b60405180910390fd5b6000600160008481526020019081526020016000206040518060a00160405290816000820180546103f190610dd6565b80601f016020809104026020016040519081016040528092919081815260200182805461041d90610dd6565b801561046a5780601f1061043f5761010080835404028352916020019161046a565b820191906000526020600020905b81548152906001019060200180831161044d57829003601f168201915b5050505050815260200160018201805461048390610dd6565b80601f01602080910402602001604051908101604052809291908181526020018280546104af90610dd6565b80156104fc5780601f106104d1576101008083540402835291602001916104fc565b820191906000526020600020905b8154815290600101906020018083116104df57829003601f168201915b5050505050815260200160028201805461051590610dd6565b80601f016020809104026020016040519081016040528092919081815260200182805461054190610dd6565b801561058e5780601f106105635761010080835404028352916020019161058e565b820191906000526020600020905b81548152906001019060200180831161057157829003601f168201915b50505050508152602001600382015481526020016004820160009054906101000a900473ffffffffffffffffffffffffffffffffffffffff1673ffffffffffffffffffffffffffffffffffffffff1673ffffffffffffffffffffffffffffffffffffffff168152505090506000816080015190508073ffffffffffffffffffffffffffffffffffffffff166108fc349081150290604051600060405180830381858888f19350505050158015610648573d6000803e3d6000fd5b5033826080019073ffffffffffffffffffffffffffffffffffffffff16908173ffffffffffffffffffffffffffffffffffffffff168152505083600260003373ffffffffffffffffffffffffffffffffffffffff1673ffffffffffffffffffffffffffffffffffffffff16815260200190815260200160002081905550600260008273ffffffffffffffffffffffffffffffffffffffff1673ffffffffffffffffffffffffffffffffffffffff16815260200190815260200160002060009055347f4785465a3f5572b94a19a52e251ce162d380dfa0499f2a3cfc851f34e418d7048360000151846020015185604001516040516107489392919061119c565b60405180910390a250505050565b61075e6107d9565b600073ffffffffffffffffffffffffffffffffffffffff168173ffffffffffffffffffffffffffffffffffffffff16036107cd576040517f08c379a00000000000000000000000000000000000000000000000000000000081526004016107c49061125a565b60405180910390fd5b6107d681610857565b50565b6107e161091b565b73ffffffffffffffffffffffffffffffffffffffff166107ff61033e565b73ffffffffffffffffffffffffffffffffffffffff1614610855576040517f08c379a000000000000000000000000000000000000000000000000000000000815260040161084c906112c6565b60405180910390fd5b565b60008060009054906101000a900473ffffffffffffffffffffffffffffffffffffffff169050816000806101000a81548173ffffffffffffffffffffffffffffffffffffffff021916908373ffffffffffffffffffffffffffffffffffffffff1602179055508173ffffffffffffffffffffffffffffffffffffffff168173ffffffffffffffffffffffffffffffffffffffff167f8be0079c531659141344cd1fd0a4f28419497f9722a3daafe3b4186f6b6457e060405160405180910390a35050565b600033905090565b6000604051905090565b600080fd5b600080fd5b600080fd5b600080fd5b6000601f19601f8301169050919050565b7f4e487b7100000000000000000000000000000000000000000000000000000000600052604160045260246000fd5b61098a82610941565b810181811067ffffffffffffffff821117156109a9576109a8610952565b5b80604052505050565b60006109bc610923565b90506109c88282610981565b919050565b600067ffffffffffffffff8211156109e8576109e7610952565b5b6109f182610941565b9050602081019050919050565b82818337600083830152505050565b6000610a20610a1b846109cd565b6109b2565b905082815260208101848484011115610a3c57610a3b61093c565b5b610a478482856109fe565b509392505050565b600082601f830112610a6457610a63610937565b5b8135610a74848260208601610a0d565b91505092915050565b6000819050919050565b610a9081610a7d565b8114610a9b57600080fd5b50565b600081359050610aad81610a87565b92915050565b6000819050919050565b610ac681610ab3565b8114610ad157600080fd5b50565b600081359050610ae381610abd565b92915050565b600080600080600060a08688031215610b0557610b0461092d565b5b600086013567ffffffffffffffff811115610b2357610b22610932565b5b610b2f88828901610a4f565b955050602086013567ffffffffffffffff811115610b5057610b4f610932565b5b610b5c88828901610a4f565b945050604086013567ffffffffffffffff811115610b7d57610b7c610932565b5b610b8988828901610a4f565b9350506060610b9a88828901610a9e565b9250506080610bab88828901610ad4565b9150509295509295909350565b610bc181610ab3565b82525050565b6000602082019050610bdc6000830184610bb8565b92915050565b600073ffffffffffffffffffffffffffffffffffffffff82169050919050565b6000610c0d82610be2565b9050919050565b610c1d81610c02565b82525050565b6000602082019050610c386000830184610c14565b92915050565b600060208284031215610c5457610c5361092d565b5b6000610c6284828501610ad4565b91505092915050565b610c7481610c02565b8114610c7f57600080fd5b50565b600081359050610c9181610c6b565b92915050565b600060208284031215610cad57610cac61092d565b5b6000610cbb84828501610c82565b91505092915050565b60008160601b9050919050565b6000610cdc82610cc4565b9050919050565b6000610cee82610cd1565b9050919050565b610d06610d0182610c02565b610ce3565b82525050565b6000819050919050565b610d27610d2282610ab3565b610d0c565b82525050565b6000819050919050565b610d48610d4382610a7d565b610d2d565b82525050565b6000610d5a8287610cf5565b601482019150610d6a8286610d16565b602082019150610d7a8285610d16565b602082019150610d8a8284610d37565b60208201915081905095945050505050565b600081519050919050565b7f4e487b7100000000000000000000000000000000000000000000000000000000600052602260045260246000fd5b60006002820490506001821680610dee57607f821691505b602082108103610e0157610e00610da7565b5b50919050565b60008190508160005260206000209050919050565b60006020601f8301049050919050565b600082821b905092915050565b600060088302610e697fffffffffffffffffffffffffffffffffffffffffffffffffffffffffffffffff82610e2c565b610e738683610e2c565b95508019841693508086168417925050509392505050565b6000819050919050565b6000610eb0610eab610ea684610ab3565b610e8b565b610ab3565b9050919050565b6000819050919050565b610eca83610e95565b610ede610ed682610eb7565b848454610e39565b825550505050565b600090565b610ef3610ee6565b610efe818484610ec1565b505050565b5b81811015610f2257610f17600082610eeb565b600181019050610f04565b5050565b601f821115610f6757610f3881610e07565b610f4184610e1c565b81016020851015610f50578190505b610f64610f5c85610e1c565b830182610f03565b50505b505050565b600082821c905092915050565b6000610f8a60001984600802610f6c565b1980831691505092915050565b6000610fa38383610f79565b9150826002028217905092915050565b610fbc82610d9c565b67ffffffffffffffff811115610fd557610fd4610952565b5b610fdf8254610dd6565b610fea828285610f26565b600060209050601f83116001811461101d576000841561100b578287015190505b6110158582610f97565b86555061107d565b601f19841661102b86610e07565b60005b828110156110535784890151825560018201915060208501945060208101905061102e565b86831015611070578489015161106c601f891682610f79565b8355505b6001600288020188555050505b505050505050565b600082825260208201905092915050565b60005b838110156110b4578082015181840152602081019050611099565b60008484015250505050565b60006110cb82610d9c565b6110d58185611085565b93506110e5818560208601611096565b6110ee81610941565b840191505092915050565b6000604082019050818103600083015261111381856110c0565b9050818103602083015261112781846110c0565b90509392505050565b7f63616e74206166666f7264000000000000000000000000000000000000000000600082015250565b6000611166600b83611085565b915061117182611130565b602082019050919050565b6000602082019050818103600083015261119581611159565b9050919050565b600060608201905081810360008301526111b681866110c0565b905081810360208301526111ca81856110c0565b905081810360408301526111de81846110c0565b9050949350505050565b7f4f776e61626c653a206e6577206f776e657220697320746865207a65726f206160008201527f6464726573730000000000000000000000000000000000000000000000000000602082015250565b6000611244602683611085565b915061124f826111e8565b604082019050919050565b6000602082019050818103600083015261127381611237565b9050919050565b7f4f776e61626c653a2063616c6c6572206973206e6f7420746865206f776e6572600082015250565b60006112b0602083611085565b91506112bb8261127a565b602082019050919050565b600060208201905081810360008301526112df816112a3565b905091905056fea2646970667358221220675b53728dabaa90e34691c23dff06fd06d3a6eb9cba33061a0bde39583f3ef364736f6c63430008150033",
  "linkReferences": {},
  "deployedLinkReferences": {}
}